S00E000043616E324D622E7372656323
S31500000000C82D0020D52D0000012C0000D12D0000A8
S31500000010D12D0000D12D0000D12D0000D12D0000E2
S31500000020000000000000000000000000D12D0000CC
S31500000030D12D000000000000D12D0000D12D0000C0
S31500000040A5210000192100003122000079220000BC
S31500000050A5210000192100003122000079220000AC
S31500000060AD270000812800009D290000812800009E
S315000000709D290000C5260000C5260000C5260000F3
S31500000080A52100001921000031220000792200007C
S31500000090000000000000000000000000000000005A
S315000000A0000000000000000000000000000000004A
S315000000B0000000000000000000000000000000003A
S315000000C0000000000000000000000000000000002A
S315000000D0000000000000000000000000000000001A
S315000000E0000000000000000000000000000000000A
S315000000F000000000000000000000000000000000FA
S3150000010000000000000000000000000000000000E9
S3150000011000000000000000000000000000000000D9
S3150000012000000000000000000000000000000000C9
S3150000013000000000000000000000000000000000B9
S3150000014000000000000000000000000000000000A9
S315000001500000000000000000000000000000000099
S315000001600000000000000000000000000000000089
S315000001700000000000000000000000000000000079
S315000001800000000000000000000000000000000069
S315000001900000000000000000000000000000000059
S315000001A00000000000000000000000000000000049
S315000001B00000000000000000000000000000000039
S315000001C0FFFFFFFFFFFFFFFFFFFFFFFFFFFFFFFF39
S315000001D0FFFFFFFFFFFFFFFFFFFFFFFFFFFFFFFF29
S315000001E0FFFFFFFFFFFFFFFFFFFFFFFFFFFFFFFF19
S315000001F0FFFFFFFFFFFFFFFFFFFFFFFFFFFFFFFF09
S3150000020010B5054C237833B9044B13B1044800E00C
S3150000021000BF0123237010BDB000002000000000C5
S315000002207851000008B5034B1BB10349034800E0B1
S3150000023000BF08BD00000000B40000207851000097
S315000002400379042B05D0022B02BF01220B4B1A7037
S31500000250704710B50446836882B009480DF107015E
S315000002608DF8073001F0A6FC2379022B01D002B0ED
S3150000027010BD0122014B1A70F9E700BF00000020F3
S31500000280140800202DE9F0410F46154603F0E0FB67
S315000002900446C0B10026DFF83880043D80220021E4
S315000002A0404603F0CCFA214655F8040F03F0C0FB94
S315000002B03946002003F0CCFB013604460028EDD178
S315000002C03046BDE8F08106463046BDE8F08100BF05
S315000002D02C0800200FB470B582B006AD55F8046B3B
S315000002E04FF4806200211548154C03F0A8FA2A46FF
S315000002F031461248019503F0A9FC237823B902B0D0
S31500000300BDE8704004B070470C4803F099FB002329
S3150000031002460A490B48237001F08EFC0A4A4FF642
S31500000320FF73106001E0013BE9D02278002AFAD081
S3150000033002B0BDE8704004B0704700BF080400205A
S3150000034000000020B40B00200808002070B52DED39
S31500000350028BCF4B84B01B681BBBCE4D286803F0C5
S3150000036047FA0446686803F043FA07EE104ADFEDE1
S31500000370CA7AB8EE470A80EE270A039000F008FA18
S31500000380DFEDC67AC64820EE270A00F0FDFA2046C1
S315000003900399C34A04B0BDEC028BBDE8704000F07F
S315000003A0F7BABC4CBF492246FFF76CFF206803F042
S315000003B01FFA0346BA4D60682B6003F019FA46240B
S315000003C06860013CB7EE000A2846A4B200F0B0FB14
S315000003D0002CF6D1D5ED077AD5E900329FEDB28A29
S315000003E067EE887AFDEEE77A0092A96817EE902A02
S315000003F0AE48FFF76FFFD5ED2E7A67EE887AFDEEF1
S31500000400E77AAB4E17EE901A3046FFF763FFAB6BF9
S3150000041030462344D3ED007A67EE887AFDEEE77A1C
S31500000420043417EE901AFFF755FF0C2CEFD1002479
S315000004309FED9D8A9E4E2B6C30462344D3ED007A69
S3150000044067EE887AFDEEE77A043417EE901AFFF726
S3150000045041FF242CEFD100249FED938A944EAB6C80
S3150000046030462344D3ED007A67EE887AFDEEE77ACC
S31500000470043417EE901AFFF72DFF542CEFD12B6D95
S315000004808C48D3ED026AD3ED007A93ED017A66EEDD
S31500000490886A27EE087A27EE888AFDEEE67A17EE56
S315000004A0903AFDEEC77A17EE902AFDEEC87A17EE5F
S315000004B0901ADFED7D8A00247D4EFFF70BFFAB6FB0
S315000004C030462344D3ED007A67EEA87AFDEEE77A4C
S315000004D0043417EE901AFFF7FDFE542CEFD195ED7C
S315000004E02B7AD5ED2C7A27EE287A67EEA88AFDEED0
S315000004F0C77A17EE902AFDEEE87A6F4817EE901A43
S3150000050000249FED698A6A4EFFF7E4FED5F898301D
S3150000051030462344D3ED007A67EE887AFDEEE77A1B
S31500000520043417EE901AFFF7D5FE0C2CEED10024FA
S315000005309FED5D8A5E4ED5F8A03030462344D3ED5C
S31500000540007A67EE887AFDEEE77A043417EE901AA1
S31500000550FFF7C0FE0C2CEED100249FED538A544EBB
S31500000560AB6D30462344D3ED007A67EE887AFDEE14
S31500000570E77A043417EE901AFFF7ACFE242CEFD17D
S3150000058000249FED498A4A4E2B6E30462344D3ED14
S31500000590007A67EE887AFDEEE77A043417EE901A51
S315000005A0FFF798FE182CEFD100249FED3F8A404EAE
S315000005B0AB6E30462344D3ED007A67EE887AFDEEC3
S315000005C0E77A043417EE901AFFF784FE0C2CEFD16D
S315000005D02B6F3748D3ED007A67EE887AFDEEE77A1F
S315000005E017EE901A0646FFF775FE2B6F3046D3EDD1
S315000005F0017A67EE887AFDEEE77A17EE901AFFF732
S3150000060069FED5F880302C4893ED017AD3ED007A57
S3150000061027EE087A27EE888AFDEEC77A17EE902A2B
S31500000620FDEEC87A17EE901ADFED1F8A0024FFF759
S3150000063051FED5F8883030462344D3ED007A67EE74
S31500000640A87AFDEEE77A043417EE901AFFF742FE19
S315000006501C2CEED100249FED148A154ED5F890304F
S3150000066030462344D3ED007A67EE887AFDEEE77ACA
S31500000670043417EE901AFFF72DFE1C2CEED10F480E
S3150000068004B0BDEC028BBDE87040FFF723BE00BF8F
S315000006900C080020FC03002000007A460000C84237
S315000006A0CC000020A44300000024744988430000C5
S315000006B0984300009C430000A8430000B04300009C
S315000006C02A4B2DE9F041D3E9000101F079FF2849D1
S315000006D0284801F083FB00270246274B274D40F2AE
S315000006E0D2412748274E1A60274CFFF7F3FD4FF4F7
S315000006F000723946284603F0A2F801224FF4007131
S315000007003046276001F03CFA142003F07BF8DFF84E
S315000007107C80C8F80000142003F074F8C8F80400C0
S31500000720142003F06FF8C8F80800304601F07CFA90
S31500000730216880B96B180029F7D013F9013C0A2B00
S31500000740F3D12846FFF702FE3046276001F06CFA27
S3150000075021680028EED02944304601F047FA216886
S315000007600028E7D001312160E4E700BF9C4D00007E
S31500000770A84D0000B40B002008080020FC01002052
S31500000780B44300001408002010080020FC030020D9
S31500000790DFED147AB4EEE70AF1EE10FA1CD4DFEDC1
S315000007A0127AB4EE670AF1EE10FA37FE800A0023D9
S315000007B0DFED0C7A0D4A04E00133C92B0FD0F2ECC1
S315000007C0017AB4EEE70AF1EE10FAF5D8084A02EB20
S315000007D0830393ED000A7047B0EE670AE7E79FEDE3
S315000007E0050A704787164D4074248540EC46000084
S315000007F00C4A000000000000DFED1B7AB4EEE70AA9
S31500000800F1EE10FA23D5B0EE677A0023DFED167A03
S31500000810164A04E00133C92B22D0F2EC017AB4EE79
S31500000820E77AF1EE10FAF5D8114A77EE677A02EB1D
S31500000830830292ED006A0F4A67EE867A02EB830323
S31500000840D3ED006A77EEA67A87EE870A7047F7EE51
S31500000850007AB4EE670AF1EE10FA37FE807AD4E732
S315000008609FED050A704700BF0AD7A33B104A000058
S31500000870C4430000E846000000000000D0ED007A06
S31500000880D0ED075ADFED346A9FED346AF8EE677AE9
S3150000089070B5334B334C2DED028B4FF0000C1C60C2
S315000008A085EEA67A0446C7EE866A2F4A2F49856BDF
S315000008B099605A60036C2E49C4ED2F6A2D4A85ED66
S315000008C0007A03F12400C5F804C0C5F808C001E0A9
S315000008D051F8042B43F8042B9842F9D1B7EE008A5D
S315000008E0A56D20220021281D02F0A9FF85ED008AB2
S315000008F09FED210A00F074FE0022F0EE407AA06D12
S31500000900236E1E49C5ED047A9FED1B0A80ED088A09
S3150000091019605A609A60DA601A615A6100F060FEE6
S3150000092038EE400ABDEC028B266E0023A26E206FC5
S31500000930D4F8801086ED020ADFF848C0104DC2F8E0
S3150000094008C013605360456003600B604B60D4F8C9
S31500000950BC30C4F8AC3070BD0000C84200007A4616
S31500000960AC0800209EEFA73DB537F83CA7B49041F0
S31500000970504D00006F12833A617BA3BF132D3D38A3
S315000009800AD723BBB6F37DBD80ED070A704700BFCB
S315000009902DE9F04740F2031C40F2033E40F2017598
S315000009A0002440F2037740F2013640F2032A40F277
S315000009B001294FF48178594BC2E90001C2E90B01C4
S315000009C003F10C01116403F13001916403F1840118
S315000009D0116503F19001916503F1B401116603F10C
S315000009E0CC01916603F1D801116703F1E00191672B
S315000009F003F59A71C2F8801003F59E71C2F888104B
S31500000A0003F5AC719363A2F88C50A2F89450C2E936
S31500000A100944A2F864A0A2F87490A2F884805463F2
S31500000A20A2F83CC0A2F844E0A2F84C70A2F854C068
S31500000A30A2F85CE0A2F86C60A2F87C70A2F89CC0F8
S31500000A40C2F89010D2ED077AF8FE677AFCEEE77AE4
S31500000A5003F5BA71C2F8981003F52371C2F80411B0
S31500000A6003F52A71C2F80C112D49A2F80051A2F81B
S31500000A700851116103F5C0752A49C2F8A05003F563
S31500000A80C675C2F8C450916103F5D87503F51071A7
S31500000A9003F52D70C2F8CC50C2F8EC1003F5EA75D8
S31500000AA003F51371C2F81401C2F8D450C2F8F41059
S31500000AB003F5F07503F51C711B48C2F8DC50C2F84B
S31500000AC0FC1003F50D7503F5307103F53373A2F8C9
S31500000AD0E070A2F8A4C0A2F8C8E0A2F8D0E0A2F89C
S31500000AE0D8C0A2F8E8C0A2F8F060A2F82061A2F887
S31500000AF0F8E0A2F828E1A2F810C1A2F818C1C2F8DD
S31500000B00E4505061C2F81C11C2F82431C2ED027AD9
S31500000B1082F82C4182F82040BDE8F087B808002012
S31500000B209EEFA73DA7B49041B537F83CFFFFFFFF06
S31500000B302DE9F04F2DED028B0446406BB0EE408A56
S31500000B40462893B06CD0D4E909530130226860631B
S31500000B502A4462626268594D07EE902A1344A362E2
S31500000B60B8EEE70A00F0FAFCDFED557AB4EEE70AD4
S31500000B70F1EE10FAD4ED017A48BF2B68B8EEE70A19
S31500000B8044BF01332B6000F0E9FCDFED4D7AB4EE93
S31500000B90E70AF1EE10FA0EDD00232B6094F82050E0
S31500000BA0052D00F2C084DFE815F066006B049500A1
S31500000BB0560410004E0044F250632A689A42EDD162
S31500000BC0002204232A6084F82030D4ED007A9FEDB9
S31500000BD03D0AF8EE677A87EE800AA66BFFF7D8FD26
S31500000BE0A36B86ED000A9FED387AD3ED007A67EEA7
S31500000BF0877AB8FE677A0022BCEEC77A9A602046EA
S31500000C00C4ED077A84ED027AFFF738FE0523002546
S31500000C1084F82030284613B0BDEC028BBDE8F08F77
S31500000C2001200023616AA26A284DC140A5FB01612B
S31500000C3085FB02651544D217C2EBA51249091D466C
S31500000C40E162226382E7D4ED017AB8EEE70A00F0AA
S31500000C5085FCDFED1F7AB4EEE70AF1EE10FA40F3F9
S31500000C60088400250123284684F8203013B0BDEC03
S31500000C70028BBDE8F08F2046FFF700FED4ED007A28
S31500000C809FED100AF8EE677A87EE800A94ED078AE0
S31500000C90FFF77EFDDFED0C7A20EE270A38EE400ADC
S31500000CA000F05CFCF2EE047AB4EEE70AF1EE10FA1C
S31500000CB0D7DD042384F82030ACE700BFA80B002062
S31500000CC00000704200007A460000C842EBA00EEA1F
S31500000CD000005C420122A36B84F82020186802F011
S31500000CE045FA82A3D3E9002302F00AFD18B163682E
S31500000CF0132B40F3BE83D4ED0B7AB8EE677AD4EDAE
S31500000D000C7ADFED735AF8EEE77A9FED726AC7EE5A
S31500000D10256A87EE867AD4F8C810D4F8C43004F170
S31500000D203800009102AD04F1CC0703220590079527
S31500000D3003C804F1800584ED307AC4ED2F6A04F10E
S31500000D404006069500F008FE97E80C0096E80300BA
S31500000D5000F032FE97E80C0097E8030004F1C4099E
S31500000D609FED5D0A00F0E8FC99E803008DE80300BA
S31500000D7097E80C0099E8030000F052FC97E80C0095
S31500000D8097E80300B0EE000A00F0D6FC97E80300EF
S31500000D908DE8030097E80C0099E8030000F06CFC6E
S31500000DA0079B04F1480A9AE8030083E8030099E8E0
S31500000DB00C0097E803008DE80300059804F1D408B9
S31500000DC003C800F057FDD8E900018DE8030004F1DF
S31500000DD0600393E80300069B0CCB00F0D5FCD4F827
S31500000DE0E03007220093D4F8DC30D8E9000100F0A7
S31500000DF0B3FD9AE803008DE8030004F1580393E875
S31500000E0003009AE80C0000F0BFFC9AE8030004F126
S31500000E10DC030CCB8DE803009AE8030000F000FC2D
S31500000E209FED2E7AA56C216D2D482B46844681EDCB
S31500000E30007A81ED017A81ED027A05F11C02F3EC6C
S31500000E40016AFCEC017A67EEA67A37EE277A9A42B7
S31500000E5081ED007AF3D19FED217ADFF884C005F1A8
S31500000E603803F2EC016AFCEC017A67EEA67A37EEFB
S31500000E70277A934281ED017AF3D19FED187A5435A2
S31500000E80F3EC016AF0EC017A67EEA67A37EE277A80
S31500000E909D4281ED027AF3D1E36F0722009304F1BC
S31500000EA050031946049303C9A36F00F055FD04F1DE
S31500000EB0780393E803008DE803000CCB9AE803005F
S31500000EC000F0DAFB236C074A074903F1240013E01C
S31500000ED000007A460000C8C3BDE38D3C0000000058
S31500000EE004000020BD378635744D00001904560EE7
S31500000EF02DB28D3F51F8042B43F8042B9842F9D1BB
S31500000F0004F1EC0304F1E402CDE908A94FF000086E
S31500000F1091469A46DFF8B4B304F1F405A26FD4F80B
S31500000F20E430D4F8EC0002EB880203F10C0C52F822
S31500000F301C1B43F8041B9C4540F8041BF7D195E89D
S31500000F4003008DE803009AE80C0099E8030000F01E
S31500000F501BFC95E80C0095E80300BBEC010A00F0C9
S31500000F60EBFB96E803008DE8030008F1010895E81D
S31500000F700C0096E8030000F053FBB8F1070FCDD143
S31500000F80DDE908A9D4F8C830049D009395E803006C
S31500000F900322D4F8C43000F0DFFC97E80C0096E892
S31500000FA0030000F009FD97E80C0097E803009FEDA9
S31500000FB0BC0A00F0C1FB99E803008DE8030097E83E
S31500000FC00C0099E8030000F02BFB97E80C0097E86B
S31500000FD00300B0EE000A00F0AFFB97E803008DE8CF
S31500000FE0030097E80C0099E8030000F045FB99E838
S31500000FF00C009AE80300079D85E8030097E80300C4
S315000010008DE80300049D95E8030000F033FC94EDA1
S31500001010300AD4F8805085ED000A00F0EFFA85ED2D
S31500001020010A94ED300A00F099FADFED9E7AB4EEEB
S31500001030E70AF1EE10FA00F12A82D4ED307AF5EEE5
S31500001040C07A994DF1EE10FAD5ED027A95ED010AC6
S31500001050964B20EE270AC4F8A830DFED958A48BFE4
S315000010604FF07E5388EE800A48BFC4F8A83000F0DF
S3150000107075FAB1EE400A00F0B3FA94ED2A7ADFED84
S315000010808D7A67EE277ADFED8C6A17EE900A84ED8B
S315000010902D0A28EE268A02F069F87FA3D3E90023F9
S315000010A002F0BCF88046D4F8C000894602F05EF82B
S315000010B002460B464046494602F0B0F8804618EE16
S315000010C0100A894602F052F802460B464046494647
S315000010D002F0CEF902F03CFB00EE100A00F03EFAF8
S315000010E0B1EE400A00F07CFA84ED2E0AD4F8B43052
S315000010F0A26DF7EE006A1361D4F8B810236E116280
S31500001100D4ED2A7A68EEE78AC8EE887AC3ED007ACB
S3150000111094ED2D7A36EEC77A83ED027AD4ED2E7AE7
S3150000112077EEE67A0027C3ED057ACDE90B77CDE9B0
S315000011300D77CDE90F770DF12C081197A36C3B4481
S3150000114093ED000AFFF758FB04371C2FA8EC010AA1
S31500001150F4D19AE80C009DED0C7ADDED0B7ADDED0D
S315000011600D4A77EE877A9DED0E5A77EEA47ADDED7D
S315000011700F5A77EE857A9DED106A77EEA57A9DED8A
S31500001180117A77EE867AF1EE0C6A77EE877A87EE39
S31500001190A67AA16E206F81ED007A95ED017AD5EDE4
S315000011A0007AB1EE477AF1EE677A04F1880781EDAD
S315000011B0017AC0ED007A97E803008DE8030004F198
S315000011C0680CDCE9000100F0DFFA069B04F170010F
S315000011D00CCB03C900F07CFAD4F8FC3003F11C02F6
S315000011E0A3EC010A9A42FBD197E8030004F1FC0341
S315000011F00CCB8DE8030097E8030000F011FA97E89E
S3150000120003002E4B0CCB00F063FAD4F8043184EDC6
S315000012102B0A03F11C0201E094ED2B0AA3EC010A50
S315000012209A42F9D104F1900292E803008DE8030096
S3150000123004F582730CCB97E8030000F01DFA9FEDCE
S31500001240207AD4F89010DFED1F7A0B4684ED2C7AC5
S315000012501D4A01F11C0001E0F2EC017AF3EC016A8F
S3150000126066EEA77A67EEA67A37EE277A984284ED7D
S315000012702C7AF1D10022D4F898309FED120A00277B
S31500001280A14604F5867504F198081A605A609A60BA
S3150000129022E000BFAFF30080676666666666E63FDB
S315000012A0BDE38D3C6F12833AAC08002071F5833F95
S315000012B03333333FCCFF764200007A46944D00002C
S315000012C066F7E43E01A03BC5344D0000304D0000FA
S315000012D093ED000AD9F89010D9F87830D9F80C4176
S315000012E003EB070CDCF8003001EB070E2360DCF89B
S315000012F01CA095E80C0095E80300C4F804A0DCF8EF
S3150000130038C00437C4F808C0DEED007A20EE270A9C
S3150000131000F012FA98E803008DE8030095E80C0047
S3150000132098E8030000F07CF9874B1C2F3B44CFD193
S3150000133098E80300B7EE008A99ED2C0A09F1A00798
S3150000134088EE000A97E80C0000F0F6F997E803002B
S31500001350D9ED2B7A99ED2F0A09F58A7530EE670AD1
S3150000136095E80C0000F0E8F9059B4C4693E803006D
S315000013708DE80300049995E80C0003C900F050F9C4
S31500001380D9F83830FFEE006AD3ED007A93ED027A91
S31500001390F4EEC87AF1EE10FAB4EEE67AC4BF83ED45
S315000013A0008AF0EE487AF1EE10FA06D4F7EE006AFB
S315000013B0B4EEE67AF1EE10FA01DDC3ED026AF5EE5F
S315000013C0C07AF1EE10FA48BF0423D4F8A0E048BF73
S315000013D084F82030D4F81CC1DEF8003004F592758C
S315000013E0CCF80030DEF8048004F58E730CCB95E85B
S315000013F00300CCF80480DEF808E0CCF808E08DE8BD
S31500001400030097E8030000F0BFF995E80C0095E8A3
S31500001410030094ED2C0A00F08FF996E803008DE89E
S31500001420030095E80C0096E8030000F025F9A36B8D
S315000014309FED467AD3ED007A67EE877AB8FE677A33
S31500001440C4ED077AFCEEC77A17EE903A642B88BF94
S315000014506423A3600DE00123A56B84F820302E6879
S31500001460304601F083FE34A3D3E9002302F066F987
S3150000147030B30025284613B0BDEC028BBDE8F08FD3
S31500001480334A1368462B07D001331360F1E7002275
S31500001490D4F880305A60D0E5012502202D4B216812
S315000014A01560994284F82000E3D96368013BB3F5DF
S315000014B0957FDED80323002584F82030FFF7AABBEA
S315000014C0206B01F041FE1EA3D3E9002301F0A6FE26
S315000014D002F03EF99FED207A07EE900AC7EE877A72
S315000014E007EE106AF7EE006A77EE877AF4EEE67A90
S315000014F0F1EE10FA0CDD64239FED147AF0EE667AB5
S31500001500C5ED007A002584ED077AA360FFF782BB5C
S315000015109FED0E7A27EE877AF8FE476AFCEEE66ABA
S3150000152016EE903AECE70023012584F82030FFF709
S3150000153071BB00BFAFF30080EC51B81E85EBEF3FE7
S31500001540676666666666E63F304D00000000C84284
S3150000155020000020C40301000050C34AB5EEC00AB3
S31500001560F1EE10FA48BFB1EE400A7047FFFFFFFFE9
S3150000157038B519A5D5E900452DED048BB7EE008ADF
S31500001580F6EE009AF0EE408AB0EE489A05E088EE54
S31500001590880A30EE088A28EE298A28EE087AC7EEED
S315000015A0287A77EEC97AF5EEC07AF1EE10FA48BFDE
S315000015B0F1EE677A17EE900A01F0D8FD22462B4627
S315000015C002F0B2F80028E2D1B0EE480ABDEC048B76
S315000015D038BD00BFAFF300802D431CEBE2361A3F47
S315000015E0B6EE007AF7EE006A60EE007A30EE260A72
S315000015F067EE877A37EE800A704700BFB5EEC00AFD
S31500001600F1EE10FA06D402DC9FED040A7047B7EE3D
S31500001610000A7047BFEE000A704700BF00000000D6
S31500001620F0B484B004AC04E9030069469DF80C40AC
S3150000163081E80C009DF80D3014FB03F4CCB10123B6
S315000016406FF0404C07461646089D03EB0C0207EB6D
S31500001650820006EB8201D0ED007A91ED007A77EEFA
S31500001660877A0133DBB205EB8202A342C2ED007A30
S31500001670EBDD04B0F0BC7047F0B484B004AC04E910
S31500001680030069469DF80C4081E80C009DF80D307A
S3150000169014FB03F4CCB101236FF0404C0746164609
S315000016A0089D03EB0C0207EB820006EB8201D0EDEE
S315000016B0007A91ED007A77EEC77A0133DBB205EB5B
S315000016C08202A342C2ED007AEBDD04B0F0BC7047A3
S315000016D030B484B004AC04E9030069469DF80D00FB
S315000016E081E80C009DF80C30984238BF1846D8B1F6
S315000016F001239FED100A6FF0404C1446029D03EB48
S315000017000C0205EB820104EB8202D1ED007A92ED28
S31500001710007A67EE877A0133DBB2984230EE270A09
S31500001720EDD204B030BC70479FED020A04B030BC65
S31500001730704700BF0000000030B484B004AC04E978
S31500001740030069469DF80C0081E80C009DF80D30F9
S3150000175010FB03F0A0B101236FF0404C1446029D2C
S3150000176003EB0C0205EB8201D1ED007A67EE807A7D
S315000017700133DBB204EB82028342C2ED007AEFDD75
S3150000178004B030BC704700BF2DE9F04F87B09DF81C
S3150000179044509DF8457002AC84E80C0006AB03E9A2
S315000017A0030015FB07F0800001959DF80D409DF89C
S315000017B014809DF8155002F025F88246B8F1000F06
S315000017C03CD04FF0010B6FF04041049E02987CB371
S315000017D04FF0010C0BF1FF3909FB05FE09FB07F978
S315000017E09FED237A0122B5B1531E04FB03C30B44BC
S315000017F000EB8303D3ED007A0EEB02030B4406EBFA
S315000018008303D3ED006A67EEA67A0132D2B295421F
S3150000181037EE277AE8D209EB0C030CF1010C0B44E6
S315000018205FFA8CFC0AEB8303644583ED007AD7D21A
S315000018300BF1010B5FFA8BFBC345C8D9019B109CCA
S3150000184007FB03F31F466BB101236FF040401A18E4
S315000018500AEB820101330968DBB204EB8202BB4268
S315000018601160F4DD504607B0BDE8F04F01F0D2BF7D
S31500001870000000002DE9F04F85B004AC04E9030038
S31500001880694681E80C009DF80CA09DF80D609DF856
S3150000189005409DF83D501098BAF1000F58D000232E
S315000018A04FF001096FF0404C9646DDF808800E9F18
S315000018B0B6B1012209F1FF3B06FB0BFB0BEB020164
S315000018C0614408EB8101D1ED007A19460132D2B2AA
S315000018D0013300EB81019642C1ED007ADBB2EDD215
S315000018E0BCB1012109F1FF3B04FB0BFB0BEB010231
S315000018F062440EEB8202D2ED007A1A460131C9B279
S3150000190012B2013300EB82028C42C2ED007ADBB2E6
S31500001910ECD2BDB1012109F1FF3B05FB0BFB0BEB43
S315000019200102624407EB8202D2ED007A1A460131C7
S31500001930C9B212B2013300EB82028D42C2ED007AC7
S31500001940DBB2ECD209F101095FFA89F9D145AFD9C9
S3150000195005B0BDE8F08F00BF82B02DE9F04182B03E
S3150000196002AC04E903009DF804500993FDB1002080
S3150000197001246FF04046009FAAB104EB060E07EB68
S315000019808E0EC0F101080146DEED007A0130C0B2CC
S3150000199000EB080C5FFA8CFC09B203EB810162458F
S315000019A0C1ED007AEFD20134E4B2AC42E4D902B020
S315000019B0BDE8F04102B070472DE9F04F8BB006ACA0
S315000019C084E80C000AAB03E903009DF81D809DF82E
S315000019D01C300190039313FB08F39800059301F064
S315000019E011FF002800F0CA8004469DF824309DF8B7
S315000019F0250010FB03F070B101236FF04045019EF6
S31500001A005A1906EB820101330968DBB204EB820244
S31500001A1083421160F4DD039B002B00F09B8008F1EC
S31500001A2001039B004FF001099A46221D0492B9F169
S31500001A30010F40F2958009F1FF3B08FB0BFB019A71
S31500001A40474602EB8B0393ED007A264602250BF1FF
S31500001A50804C0CF1010C04EB8C0E4FEA8B000BF161
S31500001A600101029004EB810102EB8C0CAEF1040E35
S31500001A70D6ED006AC7EE267AEBB222189945C2ED7A
S31500001A80007A14D9BCEC017A7346081B04EB870272
S31500001A90F3EC017AF2EC016A67EEA67A994237EE28
S31500001AA0677AF5D10135564447440431E0E7049896
S31500001AB0A9F1020209EB0B015BFA82F201F1804106
S31500001AC000EB82020198013900EB810090ED000ADB
S31500001AD0029B8D002344F3EC017A67EEA77A9A42C3
S31500001AE030EE670AF7D1FFF739FDFFF741FD09F13F
S31500001AF00109039B5FFA89F961194B4581ED000ADB
S31500001B0095D2039F012F13D90125002004F1080661
S31500001B104FEA8808324600232946013501338B42B5
S31500001B2042F8040C4244F9D1BD4206F10406F1D153
S31500001B30DDE9053573B101236FF04040059E1A18A3
S31500001B4004EB820101330968DBB205EB82029E4297
S31500001B501160F4DA20460BB0BDE8F04F01F05ABE32
S31500001B6009F1FF3108FB0191019B01F18041013927
S31500001B7003EB810393ED000A8D00B4E7FEE700BF97
S31500001B80F8B50F46164678B104464FF0FF330025E8
S31500001B90781C65616060E36006FB00F0A660236167
S31500001BA001F030FE2060F8BD182001F02BFE04463F
S31500001BB0EBE700BF38B5C368456801330446B3FB9D
S31500001BC0F5F005FB10352269AA4201D1002038BD87
S31500001BD02368A268E06802FB003001F023FE0120C2
S31500001BE0E56063690344636138BD00BFC268036989
S31500001BF010B59A42044601D1002010BDA2682368A0
S31500001C000846216902FB013101F00CFE2369626876
S31500001C100133B3FBF2F102FB113323616369012047
S31500001C20013B636110BD00BF4069704708B5FEF710
S31500001C3047FD002008BD00BF70B5C369DB699C7B0A
S31500001C40F4B9046AA37803F07B03A370837803F0E6
S31500001C500303D21A0B440261A278C360837842F070
S31500001C60800203F00303022BA27003D00B7800203E
S31500001C70E37070BD0B88002043F47E43E38170BDA2
S31500001C80EFF3108C012484F310881D4C25682DB9C0
S31500001C904FF0400E1B4EF57086F803E025680135BF
S31500001CA025608CF31088B3F810C093F80FE04FEA64
S31500001CB01C23154D1B0153FA8CFC55F82C3023F0D0
S31500001CC0011323F44043BEF1000F08BF43F00103A4
S31500001CD043F0040345F82C30EFF31085012383F31A
S31500001CE01088236813B12368013B236023681BB95E
S31500001CF08026044CE370E67085F31088A1E700BFE8
S31500001D00240C0020000D084000080840F0B5846A45
S31500001D1085B005460F4694466E46B4B194E80F006A
S31500001D2086E80F00EB6920461B7884F804C0236020
S31500001D30EB6AC4E902736B6A9847AC6A1CB196E811
S31500001D400F0084E80F0005B0F0BD3446EAE700BF97
S31500001D50C269937B03B9704710B4EFF31080012377
S31500001D6083F310881A490B681BB91A4CE370402399
S31500001D70E3700B6801330B6080F31088108A164CF1
S31500001D80030A1B0153FA80F054F82030D27B23F06B
S31500001D90011323F44043002A18BF43F0010343F024
S31500001DA0040344F82030EFF31082012383F31088F4
S31500001DB00B6813B10B68013B0B600B681BB98020E5
S31500001DC00449CB70C87082F310885DF8044B7047E5
S31500001DD0240C0020000D08400008084000222DE9D0
S31500001DE0F04701260D460B78027003F5800303F5D4
S31500001DF08C531B0203624B69C16143628378896914
S31500001E0066F301038262C16283706B78044623B96C
S31500001E100222837862F301038370012695F90B1081
S31500001E20B84B4A0901F01F07203206FA07F7A87ACD
S31500001E3043F82270BFF34F8FBFF36F8FB24A01F1A1
S31500001E40C00752F827C000016FF3104C42F827C0B4
S31500001E50AE4F03EB010CC0B28CF8000347F82140EB
S31500001E6095F9051028794FEA511C01F01F0E0CF167
S31500001E70200C06FA0EFE43F82CE0BFF34F8FBFF39B
S31500001E806F8F01F1C00C52F82CE000016FF3104E79
S31500001E9042F82CE0C0B203EB010C8CF8000347F8C3
S31500001EA0214095F90710A8794FEA511C01F01F0E41
S31500001EB00CF1200C06FA0EFE43F82CE0BFF34F8F10
S31500001EC0BFF36F8F01F1C00C52F82CE000016FF3E5
S31500001ED0104E42F82CE0C0B203EB010C8CF8000364
S31500001EE047F8214095F90900297A4FEA501C00F07D
S31500001EF01F0E0CF1200C06FA0EFE43F82CE0BFF381
S31500001F004F8FBFF36F8F00F1C00C52F82CE0090120
S31500001F100344C9B26FF3104E42F82CE083F8001365
S31500001F2047F82040E069FFF713FFEFF3108086F3D0
S31500001F3010884FF00041764B2E785A68F14022EA1D
S31500001F4001025A605B6880F31088002240F2192172
S31500001F50236A9A701A715A729A72DA725A832A78B6
S31500001F6021FA02F2D60744BF4022DA74062240F272
S31500001F701921EE691A772A786878D140AF78EA781D
S31500001F80CD0748BF4FF478414FEAC20248BF998255
S31500001F90032842EA071200F0B080002814BFF2219D
S31500001FA0E221D2B21A709971327B082A0EBF0A2238
S31500001FB0520002F002025A737278B178D2014901D6
S31500001FC001F02001D2B20A430021197296F800C02E
S31500001FD0ACF10201012940F28680D2B2DA71726850
S31500001FE0917850785970197860F301011970D17899
S31500001FF012789974D97902F05C0201F0A3010A43C0
S31500002000DA7100204FF0010EC4E90300C4E90500AF
S31500002010D4F81C803C4A98F905503E4F05F1C0099A
S31500002020690952F829A0890005F01F0501F16041F0
S315000020300EFA05F501F5614160F3104A42F829A050
S31500002040C1F880510D6098F90B500CF0030C05F1A6
S31500002050C009690952F829A0890005F01F0501F198
S3150000206060410EFA05F501F5614160F3104A42F848
S3150000207029A0C1F880510D6098F907504CF0700CFA
S3150000208005F1C009690952F829A0890005F01F0564
S3150000209001F160410EFA05F501F5614160F3104A60
S315000020A042F829A0C1F880510D6098F9091001F194
S315000020B0C00552F8258060F3104842F825804A0989
S315000020C09200758901F01F0102F160420EFA01F1DA
S315000020D002F56142C2F88011116083F802C02581C1
S315000020E06760BDE8F087FF21BCF1020F08BF42F030
S315000020F01002D2B25970DA7183E7F22142F040023F
S315000021004FE700BF00E100E000600040280C00201F
S31500002110004008405549435330B4EFF30383103B66
S315000021205BB21E4A03F1C00152F821001C4C6FF34A
S31500002130104042F8210054F82300C3691B691BB103
S3150000214003691BB130BC704703697BB9D0E9082429
S315000021500021937803F07F0343F004039370C1607A
S31500002160002CEFD030BC8022FFF7D0BD827802F081
S3150000217003010229C1680BD0046A91F800C084F8F3
S3150000218003C002F003029B1A0A44C0E90323D8E7FE
S315000021900C88056A44F47E44EC81F2E70060004056
S315000021A0280C002010B582B0EFF30383103B1E4AC3
S315000021B05BB203F1C00152F821001C4C6FF31040D2
S315000021C042F8210054F82340A27802F00303022BC0
S315000021D0236A0CBF198A5979A3690CBFC1F3080198
S315000021E0C9B2019143B9636AB3B10422204602B071
S315000021F0BDE81040FFF78ABD02F0030201A960693D
S3150000220001F010FBD4E90521A37803F003031A4477
S31500002210C91AC4E9052109B102B010BD636A002BD1
S31500002220FAD00122E2E700BF00600040280C00203F
S3150000223038B5EFF303840E4B103C64B253F82450C8
S31500002240D5E90702937803F07B039370FFF780FDCF
S315000022506B6A23B1022200212846FFF757FD054B82
S31500002260C03453F824206FF3104243F8242038BDBD
S31500002270280C002000600040F8B5EFF30384194BEA
S31500002280103C64B253F82450AB7803F00303022BDE
S315000022902B6A0CBF1E8A5E7919790CBFC6F3080635
S315000022A0F6B201F03807C90604D51A7FD20758BF1F
S315000022B047F04007187900F0C7001871E869FFF782
S315000022C047FD6B6A23B13A4631462846FFF71EFDA5
S315000022D0054BC03453F824206FF3104243F82420F2
S315000022E0F8BD00BF280C0020006000400022034615
S315000022F010461A60704700BF0B0A10B41B01064C4B
S3150000230053FA81F154F821300020C3F340035DF8FD
S31500002310044B1370704700BF00080840090A4901C2
S3150000232001F1804101F500214B68002013807047C0
S31500002330090A490123EA020C01F180411A4001F51C
S31500002340002142EA0C4200208A6070470123C8B28D
S3150000235083404AB91A040B0A5B0103F1804303F573
S31500002360002300209A6070479AB2F4E7090A4901EF
S3150000237001F1804101F5002110B40C6802EA030C5A
S315000023804CEA040C62EA030202EA0C0200205DF841
S31500002390044B0A60704700BF090A490101F18041F8
S315000023A001F500214B680020C3F30F4313807047EB
S315000023B0012310B44FEA112C4FEA4C1C0CF1804C4F
S315000023C00CF5002CDCF80440C9B203FA01F18BB21B
S315000023D001EA1441C91AB1FA81F1490900205DF8F0
S315000023E0044B1170704700BF090A490123EA020C29
S315000023F001F180411A4001F5002142EA0C42002019
S31500002400CA60704706207047012A14D04FF4803006
S315000024100B0A5B0103F1804303F5002310B4CAB233
S31500002420DC6800FA02F22243120C120400205DF866
S31500002430044BDA6070470B0A5B0103F1804303F536
S315000024400023D868C9B28A40024392B20020DA60FB
S31500002450704700BF38B50488002C4CD00021436873
S3150000246040F20245043303EBC40040F2034C40F251
S31500002470044E0C460FE062452FD153F8042C02F0AF
S31500002480B852B2F1807F14BF41F0020144F0020459
S315000024900833834210D01A88AA42ECD153F8042C90
S315000024A0083302F0B852B2F1807F14BF41F0010147
S315000024B044F001048342EED1C943CDB2012000F0BD
S315000024C03BFC0E4B012093F8BB2414432C4083F8AD
S315000024D0BB44BDE8384000F0FFBB7245D8D153F885
S315000024E0042C02F0B852B2F1807F0CBF44F0040411
S315000024F041F00401CCE7FF25E0E700BF00E0014022
S31500002500F8B50446FFF7A6FFEFF31082012383F325
S315000025101088284E33681BB92749CB704023CB70EF
S3150000252033680133336082F3108823887BB3626893
S3150000253003F1FF3E1FFA8EFE02F108011F4C01EB6C
S31500002540CE0E08E0D2B21B0113448E450A4644F86B
S3150000255023001CD008311068928810F4803F4FEA9F
S315000025601223EFD0130AD2B202EB031C54F82C70DC
S315000025701B01134420F480356FF310478E4544F851
S315000025802C700A4644F82C5044F82300E2D1EFF3AD
S315000025901082012383F31088336813B13368013B3B
S315000025A0336033681BB980200349CB70C87082F34F
S315000025B01088F8BD240C0020000D084000080840D3
S315000025C008B5034B03600846FFF79AFF002008BDD5
S315000025D054524F5008B50846FFF792FF002008BD39
S315000025E070B5012684B002AB68460C4615460193C9
S315000025F0ADF80060ADF80C100292FFF72BFFEFF379
S31500002600108286F310881D490B681BB940261C48AA
S31500002610C370C6700B6801330B6082F31088EA033F
S315000026204FEA1423E4B219D41B01164A234442F894
S315000026302350EFF31082012383F310880B6813B144
S315000026400B68013B0B600B681BB980200C49CB70F3
S31500002650C87082F31088002004B070BD094A04EBEC
S31500002660031052F820601B016FF3104642F82060F9
S3150000267025F4803642F82060D7E700BF240C0020FE
S31500002680000D08400008084070B5836984B0044610
S315000026908C46164601AD9BB193E8070085E8070016
S315000026A083F804C0E26918469E601A606369984719
S315000026B0A3691BB195E8070083E8070004B070BD65
S315000026C02B46EDE770B5EFF30383103B194A5BB277
S315000026D003F1C00152F82100174C6FF3104042F885
S315000026E0210054F82300446894F800C0BCF1010F9F
S315000026F017D1D0E902560024AE60AC64EC642C65B8
S3150000270052F821504FEA531E0C4E03F01F030CFAE9
S3150000271003F364F310450EF1600C42F8215046F8BD
S315000027202C3043692BB1BDE8704000221146FFF7FB
S31500002730ABBF70BD00600040280C002000E100E047
S31500002740F0B5076A06468DB06FB3BE468C46BEE846
S315000027500F003D4601AC0FC4BEE80F000FC49EE853
S31500002760070084E80700BCE80F000FC5BCE80F00AF
S315000027700FC59CE807008EE80700F36938469847BE
S31500002780336A73B19C460DF1040EBEE80F00ACE847
S315000027900F00BEE80F00ACE80F009EE807008CE8CB
S315000027A007000DB0F0BD0F46E7E700BF30B58DB0AE
S315000027B0EFF30383103B2F4A5BB2C03352F823106A
S315000027C06FF3104142F82310EFF303832A48103BBE
S315000027D05BB250F823502C22002101A801F02FF8FB
S315000027E000206C6894F84D3884F84D08DBB2ADF8DB
S315000027F00830B4F84218C1F30012C90638D543F0C0
S315000028002003ADF80830022394F8532884F853388F
S3150000281094F85238D2B203F01F0384F85328E11813
S3150000282091F8202860F3820281F820282A68284639
S31500002830126804936B6A01A906930192FFF780FF61
S31500002840B4F84238DB0611D52B681A69127D6AB1D5
S3150000285093F91530002B09DB01215A09074803F0CB
S315000028601F03403201FA03F340F822300DB030BDA9
S315000028701346DBE700600040280C002000E100E082
S315000028802DE9F0418CB0EFF30383103B404A5BB275
S31500002890C03352F823106FF3104142F82310EFF3C0
S315000028A0038400223B4B103C66B253F8260004F02A
S315000028B0FF04D0E900E595F8533885F8532895F8D4
S315000028C05278DBB207F01F0707F1200285F853386C
S315000028D0130155F803C0CCF380718DF82110E95827
S315000028E0DEF810301B7B43EAD17303F001038DF849
S315000028F02030002B48D1CCF38A43079305EB021214
S315000029009188C1F3030301F00F0108298DF82230E5
S3150000291037D908218DF8221000230AAA05EB0718DB
S3150000292008EB030C9CF806C201338B4202F801CB7C
S31500002930F6D3DEF800300497019344232F4487F83A
S31500002940203800234FF48062099307AB0593436A4E
S3150000295001A90693ADF80820FFF7F2FEB5F8423854
S31500002960DB070BD5002E09DB01230B4A760904F0A1
S315000029701F04403603FA04F442F826400CB0BDE8C2
S31500002980F0810029C8D1D4E72CF06043B5E700BF39
S3150000299000600040280C002000E100E070B58CB01B
S315000029A0EFF30383103B234A5BB2C03352F8231084
S315000029B06FF3104142F82310EFF303830126002240
S315000029C04FF4006C1C49103B5BB251F82350D5E91B
S315000029D00034186894F8531884F8536894F85238F9
S315000029E0C9B203F01F030493234484F8531883F8F1
S315000029F0202883F820286B6A019001A928460693AF
S31500002A00ADF808C00592FFF79BFEB4F842389B0765
S31500002A100DD52B6893F91730002B08DB5A090749A7
S31500002A2003F01F039E4002F1400341F823600CB0FF
S31500002A3070BD00BF00600040280C002000E100E0EF
S31500002A40064B074993F826001A6A51F82030C2F35C
S31500002A5002620449D3400B60704700BF00E00140AA
S31500002A6094000020B40D0020F8B54AF2035001236B
S31500002A7039493A4AA1F8FE03A2F80431B2F8043102
S31500002A809BB2002BFAD101214FF400404FF0200EEB
S31500002A904FF0090C324C334F334D6760334F2E4B9A
S31500002AA0E760334EA2F80011324AA96029606261DC
S31500002AB0266093F82620A0602061186A54F8222028
S31500002AC02D4DC0F30260C2402A6083F813E483F8F8
S31500002AD0A2C093F88024002A36D000231E4981F82C
S31500002AE0813481F8803481F8323091F83C301A070D
S31500002AF0FBD543F202100023174A088581F82A30D5
S31500002B0092F83C309B06FBD501200521134B4FF074
S31500002B10F10C83F81C01194B82F82610136292F807
S31500002B202630106A54F82310C0F30260C140002416
S31500002B302960F0204FF42541114B83F80CC01C721C
S31500002B401873A2F8FE13F8BD40F2C44083F880144F
S31500002B5000F022F8C1E700BF00E0014000C00140DC
S31500002B609400002000127A0000700040001BB7009D
S31500002B70002D310100E1F505B40D00201011011002
S31500002B8000200040704700BF00BEFEE7A0F1010034
S31500002B900028FBD1704700BF10B54FF47A72164C6F
S31500002BA0164B24684FF0000EB3FBF4FC4FF0FF33D6
S31500002BB000FB01F1A1FB020483427EEB040407D370
S31500002BC0B0FBFCF0800880B1BDE81040FFF7DEBF27
S31500002BD04FEA8C0CB1FBFCF1A1FB02128B427EEB9F
S31500002BE0020203D308460028EED110BD1846BDE800
S31500002BF01040FFF7CBBF00BFB40D002000CA9A3BC0
S31500002C0070B500240A4B0B4EB3F84051ADB225FA0D
S31500002C1004F3DB07E0B203D556F8243003B1984736
S31500002C200134102CF3D1024BA3F8305170BD00BF14
S31500002C3000600040E40B002030B56FF0FF0585B062
S31500002C40032000F079F84FF0FF311F4C1F48224651
S31500002C50856400230125CDE90111039104F1C00E1D
S31500002C6032F8020F590960B104A800EB810151F84E
S31500002C700C0C03F01F0C05FA0CFC20EA0C0041F8C2
S31500002C800C0C724503F10103EAD10199104B0F4A6E
S31500002C9003201167C3F8801202995167C3F88412A2
S31500002CA003999167C3F8881200F016F800230948C3
S31500002CB003F1C00234F8021F0133602B40F82210E2
S31500002CC0F6D105B030BD00BF4A4E0000008000407E
S31500002CD000E100E000600040EFF31081012383F380
S31500002CE01088124B33F8102092B22AB133F8102014
S31500002CF0013A92B223F8102033F810309BB293B900
S31500002D000B4A10B4B2F8FE330A4C9BB234F81000EA
S31500002D1043F4254323EA0003A2F8FE3381F3108827
S31500002D205DF8044B704781F310887047A80D0020AA
S31500002D3000E00140444F000030B4EFF3108101235E
S31500002D4083F310880E4A32F810309BB26BB90D4CE3
S31500002D500D4DB4F8FE3335F810C09BB243EA0C03B0
S31500002D6043F425439BB2A4F8FE3332F81030013306
S31500002D709BB222F8103081F3108830BC704700BF38
S31500002D80A80D002000E00140444F00000D4908B5A1
S31500002D900A6803464AB103330B4823F0030313447E
S31500002DA0834206D810460B6008BD084802460860F4
S31500002DB0F1E700F021FD0C234FF0FF3203601046CF
S31500002DC008BD00BFB00D0020C81D0020C80D0020A2
S31500002DD000BE704708B500F005F8FEF727FFFEE7CE
S31500002DE0704700BF4FF47001234B244A70B5002092
S31500002DF0C3F888109A60FFF7F3FFFFF735FE01204E
S31500002E00FFF7EEFF1E4B83F30A881E481E4A002179
S31500002E10121A00F014FD1D481D4A1E49121A00F030
S31500002E2001FD1D4D1D4B5B1B002B07DD00249E1075
S31500002E3055F8043B01349847A642F9DCFFF700FE3B
S31500002E400320FFF779FF00234FF6FF70144903F1C3
S31500002E5008020133092B21F81200F8D10320FFF7ED
S31500002E603BFF0220FFF7BCFFFFF7E6FEBDE8704020
S31500002E700020FFF787BE00BF00ED00E00000000065
S31500002E80C81D0020B0000020C80D00200000002052
S31500002E90940000207C5100008C000020900000204F
S31500002EA0000D084081F0004102E000BF83F00043BE
S31500002EB030B54FEA41044FEA430594EA050F08BFCF
S31500002EC090EA020F1FBF54EA000C55EA020C7FEA93
S31500002ED0645C7FEA655C00F0E2804FEA5454D4EB10
S31500002EE05555B8BF6D420CDD2C4480EA020281EADA
S31500002EF0030382EA000083EA010180EA020281EA12
S31500002F000303362D88BF30BD11F0004F4FEA013163
S31500002F104FF4801C4CEA113102D0404261EB410172
S31500002F2013F0004F4FEA03334CEA133302D05242F8
S31500002F3063EB430394EA050F00F0A780A4F10104B4
S31500002F40D5F1200E0DDB02FA0EFC22FA05F28018EE
S31500002F5041F1000103FA0EF2801843FA05F35941D4
S31500002F600EE0A5F120050EF1200E012A03FA0EFC53
S31500002F7028BF4CF0020C43FA05F3C01851EBE3717D
S31500002F8001F0004507D54FF0000EDCF1000C7EEB9A
S31500002F9000006EEB0101B1F5801F1BD3B1F5001FD8
S31500002FA00CD349085FEA30004FEA3C0C04F10104F7
S31500002FB04FEA445212F5800F80F09A80BCF1004F20
S31500002FC008BF5FEA500C50F1000041EB045141EAA2
S31500002FD0050130BD5FEA4C0C404141EB0101013C6B
S31500002FE028BFB1F5801FE9D291F0000F04BF01465A
S31500002FF00020B1FA81F308BF2033A3F10B03B3F12C
S3150000300020020CDA0C3208DD02F1140CC2F10C02BB
S3150000301001FA0CF021FA02F10CE002F11402D8BF19
S31500003020C2F1200C01FA02F120FA0CFCDCBF41EAE5
S315000030300C019040E41AA2BF01EB0451294330BDB4
S315000030406FEA04041F3C1CDA0C340EDC04F1140491
S31500003050C4F1200220FA04F001FA02F340EA030068
S3150000306021FA04F345EA030130BDC4F10C04C4F1AE
S31500003070200220FA02F001FA04F340EA030029468E
S3150000308030BD21FA04F0294630BD94F0000F83F4D8
S31500003090801306BF81F480110134013D4EE77FEABB
S315000030A0645C18BF7FEA655C29D094EA050F08BF07
S315000030B090EA020F05D054EA000C04BF19461046E8
S315000030C030BD91EA030F1EBF0021002030BD5FEA2C
S315000030D0545C05D14000494128BF41F0004130BD54
S315000030E014F580043CBF01F5801130BD01F00045A8
S315000030F045F0FE4141F470014FF0000030BD7FEA1B
S31500003100645C1ABF194610467FEA655C1CBF0B4615
S31500003110024650EA013406BF52EA033591EA030F2C
S3150000312041F4002130BD00BF90F0000F04BF002124
S31500003130704730B54FF4806404F132044FF0000557
S315000031404FF0000150E700BF90F0000F04BF0021D0
S31500003150704730B54FF4806404F1320410F0004536
S3150000316048BF40424FF000013EE700BF42004FEA31
S31500003170E2014FEA31014FEA02701FBF12F07F43AE
S3150000318093F07F4F81F06051704732F07F4208BF65
S31500003190704793F07F4F04BF41F40021704730B56C
S315000031A04FF4607401F0004521F000411CE700BFB8
S315000031B050EA010208BF704730B54FF000050AE03B
S315000031C050EA010208BF704730B511F0004502D53C
S315000031D0404261EB41014FF4806404F132045FEA3E
S315000031E0915C3FF4D8AE4FF003025FEADC0C18BFE7
S315000031F003325FEADC0C18BF033202EBDC02C2F1D9
S31500003200200300FA03FC20FA02F001FA03FE40EA6A
S315000032100E0021FA02F11444BDE600BF70B54FF06E
S31500003220FF0C4CF4E06C1CEA11541DBF1CEA13554C
S3150000323094EA0C0F95EA0C0F00F0DEF82C4481EAB4
S31500003240030621EA4C5123EA4C5350EA013518BFD4
S3150000325052EA033541F4801143F4801338D0A0FBC1
S3150000326002CE4FF00005E1FB02E506F00042E0FB6E
S3150000327003E54FF00006E1FB03569CF0000F18BF74
S315000032804EF0010EA4F1FF04B6F5007F64F540741C
S3150000329004D25FEA4E0E6D4146EB060642EAC621AF
S315000032A041EA55514FEAC52040EA5E504FEACE2E1C
S315000032B0B4F1FD0C88BFBCF5E06F1ED8BEF1004F1F
S315000032C008BF5FEA500E50F1000041EB045170BD9B
S315000032D006F0004646EA010140EA020081EA0301DF
S315000032E0B4EB5C04C2BFD4EB0C0541EA045170BDDB
S315000032F041F480114FF0000E013C00F3AB8014F155
S31500003300360FDEBF002001F0004170BDC4F100049D
S31500003310203C35DA0C341BDC04F11404C4F120051E
S3150000332000FA05F320FA04F001FA05F240EA020079
S3150000333001F0004221F0004110EBD37021FA04F6AF
S3150000334042EB06015EEA430E08BF20EAD37070BD69
S31500003350C4F10C04C4F1200500FA04F320FA05F0C8
S3150000336001FA04F240EA020001F0004110EBD370CA
S3150000337041F100015EEA430E08BF20EAD37070BD3A
S31500003380C4F1200500FA05F24EEA020E20FA04F313
S3150000339001FA05F243EA020321FA04F001F00041C2
S315000033A021FA04F220EA020000EBD3705EEA430E33
S315000033B008BF20EAD37070BD94F0000F0FD101F062
S315000033C00046400041EB010111F4801F08BF013C9B
S315000033D0F7D041EA060195F0000F18BF704703F0D9
S315000033E00046520043EB030313F4801F08BF013D60
S315000033F0F7D043EA0603704794EA0C0F0CEA13551C
S3150000340018BF95EA0C0F0CD050EA410618BF52EAD5
S315000034104306D1D181EA030101F000414FF00000DB
S3150000342070BD50EA410606BF1046194652EA4306E9
S3150000343019D094EA0C0F02D150EA013613D195EA5D
S315000034400C0F05D152EA03361CBF104619460AD1A5
S3150000345081EA030101F0004141F0FE4141F47001AF
S315000034604FF0000070BD41F0FE4141F4780170BD9F
S3150000347070B54FF0FF0C4CF4E06C1CEA11541DBF04
S315000034801CEA135594EA0C0F95EA0C0F00F0A7F806
S31500003490A4EB050481EA030E52EA03354FEA013133
S315000034A000F088804FEA03334FF0805545EA131346
S315000034B043EA12634FEA022245EA111545EA10650E
S315000034C04FEA00260EF000419D4208BF964244F1A5
S315000034D0FD0404F5407402D25B084FEA3202B61AC4
S315000034E065EB03055B084FEA32024FF480104FF498
S315000034F0002CB6EB020E75EB030E22BFB61A75460C
S3150000350040EA0C005B084FEA3202B6EB020E75EB9E
S31500003510030E22BFB61A754640EA5C005B084FEA06
S315000035203202B6EB020E75EB030E22BFB61A7546D3
S3150000353040EA9C005B084FEA3202B6EB020E75EBDE
S31500003540030E22BFB61A754640EADC0055EA060E9F
S3150000355018D04FEA051545EA16754FEA06164FEAE2
S31500003560C30343EA52734FEAC2025FEA1C1CC0D18E
S3150000357011F4801F0BD141EA00014FF000004FF01B
S31500003580004CB6E711F4801F04BF01430020B4F1DC
S31500003590FD0C88BFBCF5E06F3FF6AFAEB5EB030C94
S315000035A004BFB6EB020C5FEA500C50F1000041EB91
S315000035B0045170BD0EF0004E4EEA113114EB5C045E
S315000035C0C2BFD4EB0C0541EA045170BD41F4801131
S315000035D04FF0000E013C90E645EA060E8DE60CEA39
S315000035E0135594EA0C0F08BF95EA0C0F3FF43BAF56
S315000035F094EA0C0F0AD150EA01347FF434AF95EA0D
S315000036000C0F7FF425AF104619462CE795EA0C0FF0
S3150000361006D152EA03353FF4FDAE1046194622E7BD
S3150000362050EA410618BF52EA43067FF4C5AE50EA97
S3150000363041047FF40DAF52EA43057FF4EBAE12E787
S315000036404FF0FF3C06E000BF4FF0010C02E000BF68
S315000036504FF0010C4DF804CD4FEA410C7FEA6C5C4B
S315000036604FEA430C18BF7FEA6C5C1BD001B050EAEE
S31500003670410C0CBF52EA430C91EA030F02BF90EAD9
S31500003680020F0020704710F1000F91EA030F58BF98
S31500003690994208BF90422CBFD8176FEAE37040F0FA
S315000036A0010070474FEA410C7FEA6C5C02D150EA98
S315000036B0013C07D14FEA430C7FEA6C5CD6D152EA53
S315000036C0033CD3D05DF8040B704700BF8446104618
S315000036D062468C461946634600E000BF01B5FFF717
S315000036E0B7FF002848BF10F1000F01BD4DF808EDE7
S315000036F0FFF7F4FF0CBF012000205DF808FB00BFB8
S315000037004DF808EDFFF7EAFF34BF012000205DF811
S3150000371008FB00BF4DF808EDFFF7E0FF94BF01205E
S3150000372000205DF808FB00BF4DF808EDFFF7CEFF5F
S3150000373094BF012000205DF808FB00BF4DF808ED9E
S31500003740FFF7C4FF34BF012000205DF808FB00BF6F
S315000037504FEA4102B2F1E04324BFB3F5001CDCF1AD
S31500003760FE5C0DD901F0004C4FEAC0024CEA5070E5
S31500003770B2F1004F40EB830008BF20F00100704714
S3150000378011F0804F21D113F13872BCBF01F0004017
S31500003790704741F480114FEA5252C2F11802C2F149
S315000037A0200C10FA0CF320FA02F018BF40F00100CA
S315000037B04FEAC1234FEAD32303FA0CFC40EA0C007C
S315000037C023FA02F34FEA4303CCE77FEA625307D1B9
S315000037D050EA01331EBF4FF0FE4040F440007047F0
S315000037E001F0004040F0FE4040F40000704700BF8A
S315000037F00A22002100F00ABA014B1868704700BF80
S3150000380028000020024B0146186800F08DB800BF62
S3150000381028000020024B0146186800F019B800BFC6
S31500003820280000200A44431E914200D1704710B57B
S3150000383011F8014B914203F8014FF9D110BD024432
S315000038400346934200D1704703F8011BF9E7FFFFD7
S3150000385037B5002943D051F8043C0C1F0190002BCA
S31500003860B8BFE41800F0FEF91E4A0198136833B990
S315000038706360146003B0BDE8304000F0F9B9A342BC
S3150000388008D9256861198B4201BF19685B68491917
S315000038902160EDE71A465B680BB1A342FAD91168BD
S315000038A05518A5420BD12468214454181160A3422F
S315000038B0E0D11C685B68214453601160DAE702D9E5
S315000038C00C230360D6E7256861198B4202BF19688D
S315000038D05B684919636008BF21605460CAE703B09A
S315000038E030BD00BFB80D002070B50E4E0C46054623
S315000038F0316811B900F08CF830602146284600F096
S3150000390087F8431C0AD0C41C24F00304A04207D045
S31500003910211A284600F07CF8013001D14FF0FF341F
S31500003920204670BDBC0D00202DE9F041CD1C074698
S3150000393025F0030508350C2D38BF0C25002D01DBBD
S31500003940A94205D90C2300263B603046BDE8F0812C
S315000039502E4E00F087F933681C4634BB294638469C
S31500003960FFF7C2FF431C04464DD134682646002E9D
S3150000397040D123683146384604EB030800F048F886
S3150000398080453AD12168033538466D1A25F003057E
S3150000399008350C2D38BF0C252946FFF7A5FF013049
S315000039A02BD023682B4423600EE02268521B1ED4C2
S315000039B00B2A16D96119A342256018BF596063689E
S315000039C008BF316062514B6004F10B06384600F0C7
S315000039D04FF9231D26F00706F21AB6D09B1BA350FB
S315000039E0B3E76268A3420CBF32605A60ECE7234635
S315000039F06468B2E734467668B9E70C2338463B601C
S31500003A0000F036F9A1E72560DEE700BFB80D00201B
S31500003A1038B50023054D044608462B60FFF7B6F976
S31500003A20431C02D12B6803B1236038BDC40D0020AE
S31500003A30034611F8012B03F8012B002AF9D1704730
S31500003A40034613F8012B002AFBD1181A01387047D8
S31500003A50164B73B51E680546B46DFCB9502001912E
S31500003A60FFF7D0FE01990246B06520B9104B5721E9
S31500003A701048FFF789F8C0E90044C0E90244C0E9EC
S31500003A800444846104774462C0E90A44C0E90C44F2
S31500003A90C0E90E44C0E91044C0E912440123B26DE6
S31500003AA0284602B0BDE8704000F006B828000020A5
S31500003AB04C4F0000634F0000F0B508B9106888B19C
S31500003AC0044620460F4614F8015B17F8016B1EB931
S31500003AD065B92846156005E0B542F6D1002BF0D150
S31500003AE014600370F0BD1C460CE015B914F8013BD8
S31500003AF00E4616F8015BAB42F7D1002BF3D000233C
S31500003B0004F8013C1460EDE7012B2DE9F04701D0E4
S31500003B10242B06D9FFF770FE162303600020BDE8AC
S31500003B20F0870D46DFF8E0C02E4615F8014B14F875
S31500003B300C7017F00807F7D12D2C32D12C780127FD
S31500003B40B51C002B5BD0102B09D1302C07D12C785B
S31500003B5004F0DF04582C4DD16C781023023507F1A0
S31500003B6000484FF0000C08F1FF386646B8FBF3F941
S31500003B7003FB198AA4F1300EBEF1090F16D874465C
S31500003B80A34224DDBCF1000F1EDBB1451CD301D1DD
S31500003B90A24519DB06FB03464FF0010C15F8014B55
S31500003BA0E8E72B2C04BF2C78B51CCAE7A4F1410E1C
S31500003BB0BEF1190F01D8373CE2E7A4F1610EBEF160
S31500003BC0190F04D8573CDBE74FF0FF3CE6E7BCF1A2
S31500003BD0000F05DA22234646036042B930469EE7C7
S31500003BE007B17642002AF9D0BCF1000F00D0691E59
S31500003BF01160F3E73024002BB1D10823AFE7302C56
S31500003C00A5D00A23ABE700BFE44F000013460A46DF
S31500003C10014602480068FFF777BF00BF2800002072
S31500003C2000B59BB0009104916FF00041059102919F
S31500003C3005490391694600F07DF8009B00221A7041
S31500003C401BB05DF804FB00BF0802FFFF13460A46DF
S31500003C50014602480068FFF7E3BF00BF28000020C6
S31500003C60704770470148FFF7FBBF00BFC00D00203B
S31500003C700148FFF7F6BF00BFC00D00202DE9F04751
S31500003C808E6882460C4690469E421F4638D88A89E0
S31500003C9012F4906F32D0256801330969A5EB01094A
S31500003CA0656905EB45054B4405EBD5756D109D42E1
S31500003CB038BF1D46530531D52946FFF735FE064662
S31500003CC050B90C234FF0FF30CAF80030A38943F0F7
S31500003CD04003A381BDE8F0874A462169FFF7A2FDAC
S31500003CE0A38923F4906343F08003A38126614E44A5
S31500003CF06561A5EB090526603E46A560BE4200D972
S31500003D003E4632464146206800F0B8FAA3680020D5
S31500003D109B1BA360236833442360DBE72A4600F03D
S31500003D20C7FA06460028E1D121695046FFF790FD03
S31500003D30C7E7FFFF2DE9F04F98468B899DB00746F0
S31500003D401B060D4614460ED50B6963B94021FFF7D5
S31500003D50EBFD2860286120B90C233B604FF0FF3053
S31500003D60D1E040236B610023CDF80C804FF00109B0
S31500003D70DFF8AC81099320238DF8293030238DF8A4
S31500003D802A3023469A4613F8012B0AB1252AF9D17F
S31500003D90BAEB040B0BD05B46224629463846FFF7A2
S31500003DA06DFF013000F0AA80099A5A4409929AF8E8
S31500003DB00030002B00F0A28000234FF0FF320AF102
S31500003DC0010A049307938DF853301A93CDE905231E
S31500003DD054460522524814F8011B00F041FA049A91
S31500003DE0D8B9D00644BF20238DF85330110744BFFD
S31500003DF02B238DF853309AF800302A2B15D0079ACA
S31500003E00544600204FF00A0C214611F8013B303B86
S31500003E10092B4ED9B0B1079214E0A0EB0803A246D5
S31500003E2009FA03F313430493D2E7039B191D1B6896
S31500003E30002B0391BBBF5B4242F00202079307933C
S31500003E40B8BF049223782E2B0CD163782A2B35D158
S31500003E50039B02341A1D1B68002B0392B8BF4FF058
S31500003E60FF330593DFF8C8A003222178504600F0FF
S31500003E70F7F940B14023A0EB0A00013403FA00F041
S31500003E80049B0343049314F8011B062225488DF86E
S31500003E90281000F0E5F9002838D0234B1BBB039B04
S31500003EA0073323F0070308330393099B334409932D
S31500003EB067E70CFB02320C460120A5E7002301341C
S31500003EC04FF00A0C19460593204610F8012B303A9C
S31500003ED0092A03D9002BC5D00591C3E70CFB0121A4
S31500003EE004460123F0E703AB2A4604A938460093AB
S31500003EF00E4B00E000BF421C0646D6D1AB895B06DE
S31500003F003FF52CAF09981DB0BDE8F08F03AB2A46EC
S31500003F1004A938460093054B00F07CF8EBE700BF98
S31500003F20445100004E510000000000007D3C00009E
S31500003F304A5100002DE9F047164699468A68074619
S31500003F400B690C46DDF820809342B8BF13463360F8
S31500003F5091F843200AB1013333602368990642BFC2
S31500003F60336802333360256815F0060506D104F17F
S31500003F70190AE36832689B1AAB4229DC94F843209D
S31500003F80131E226818BF012392062ED404F14302A1
S31500003F9049463846C047013021D023681A3454F8C0
S31500003FA00E5C03F0060332680026042B54F8123C1C
S31500003FB008BFAD1A54F80A2C14BF002525EAE5758A
S31500003FC09342C4BF9B1AED18B5421AD1002008E0EF
S31500003FD00123524649463846C047013003D14FF0C7
S31500003FE0FF30BDE8F0870135C3E7E1185A1C3020E1
S31500003FF00233224481F8430094F8451082F84310B6
S31500004000C4E70123224649463846C0470130E6D078
S315000040100136D9E72DE9FF470F7E914680460C46CB
S31500004020782F9A460C9D01F1430207D8622F0AD8D1
S31500004030002F00F0D880582F00F0A38004F142052D
S3150000404084F842703AE0A7F16303152BF6D801A174
S3150000405051F823F0AD400000C14000003D40000093
S315000040603D4000003D4000003D400000C1400000D2
S315000040703D4000003D4000003D4000003D40000046
S31500004080CD410000F1400000AF4100003D4000007E
S315000040903D400000EF4100003D400000F1400000BF
S315000040A03D4000003D400000B74100002B681A1D4E
S315000040B01B682A6004F1420584F842300123A3E01C
S315000040C020682968060601F104030AD50E682B60EC
S315000040D0002E03DA2D23764284F843305E480A2305
S315000040E019E00E6810F0400F2B6018BF36B2EFE7EC
S315000040F02B682068191D2960010601D51E6802E09B
S315000041004606FBD51E886F2F53480CBF08230A238B
S31500004110002184F843106568002DA560A2BF2168C0
S3150000412021F0040121600EB9002D4DD01546B6FBD5
S31500004130F3F103FB1167C75D05F8017D37460E46AF
S31500004140BB42F4D9082B0BD12368DE0708D52369B7
S3150000415061689942DEBF302305F8013C05F1FF3561
S31500004160521B22614B4603AA21464046CDF800A0C9
S31500004170FFF7E0FE01304CD14FF0FF3004B0BDE850
S31500004180F087354881F845702968236851F8046B33
S3150000419029601D0614D5DF0744BF43F020032360C2
S315000041A01EB9236823F0200323601023B0E7236899
S315000041B043F0200323607823284884F84530E3E75A
S315000041C0590648BFB6B2E6E71546BBE72B68266830
S315000041D0181D6169286035061B6801D5196002E063
S315000041E07006FBD51980002315462361BAE72B68B4
S315000041F000211A1D2A601D686268284600F030F802
S3150000420008B1401B606063682361002384F8433073
S31500004210A8E723692A4649464046D0470130ABD035
S3150000422023689B0713D4E068039B9842B8BF1846DF
S31500004230A4E70123324649464046D04701309BD089
S315000042400135E36803995B1AAB42F2DCEBE7002524
S3150000425004F11906F5E700BF55510000665100004C
S31500004260C9B2024410B59042034601D1002303E0CF
S315000042701C7801308C42F6D1184610BD884210B524
S3150000428001EB020402D98442234607D8431EA14209
S3150000429008D011F8012B03F8012FF8E70244014674
S315000042A08A4200D110BD13F8014D02F8014DF7E71F
S315000042B02DE9F041804614460E4621B91146BDE867
S315000042C0F041FFF731BB2AB92546FFF7C1FA284668
S315000042D0BDE8F08100F01BF88442074602D8B4EB33
S315000042E0500F12D821464046FFF71EFB0546002810
S315000042F0EDD0BC422246314628BF3A46FFF792FA35
S3150000430031464046FFF7A4FAE1E73546DFE751F8C4
S31500004310043C181F002BBCBF0B58C0187047FFFF8A
S315000043204275696C7420776974682052656E65738E
S31500004330617320416476616E63656420466C6578BE
S3150000434069626C6520536F6674776172652050618F
S31500004350636B6167652076657273696F6E20332EB5
S31500004360362E3000332E362E3000000000000603B5
S31500004370F8B500BFF8BC08BC9E467047F8B500BF4C
S31500004380F8BC08BC9E46704725642C25642C256421
S315000043902C25642C0000000025642C0025642C25A7
S315000043A0642C25642C00000025642C25642C000058
S315000043B00A00FFFF48656C6C6F20677579202564DD
S315000043C00D0A00FF613265409F3C54406132454012
S315000043D0613239406C0931400B462D40D7122640D8
S315000043E01A5122401F8517401FF408400AD7F33F91
S315000043F00B46DD3FAF25CC3FB81EBD3F9031B73FE2
S31500004400CD3BAE3FD7A3A83F3E79A83F3EE8A13FAC
S315000044101FF4A43F71ACA33FD712B23F6744A93F34
S31500004420295C8F3FC4B17E3F166A6D3F14AE673F6D
S31500004430711B5D3FEC2F5B3FAF25543F86C9543F50
S315000044402B18553F1F855B3F14AE673FD95F663F0C
S315000044501F857B3F006F813F3D0A873FB98D863FB1
S315000044604850843F3333833FCDCC843F6744813FFC
S3150000447034A2843F48BF853F865A833FCEAA7F3FFA
S315000044805396713FB003673F6744593F499D503F7C
S31500004490C3D34B3FCDCC4C3F9B553F3FE258473FA4
S315000044A086C9443F166A3D3F3411463FF6283C3FD5
S315000044B0158C3A3F90A0383F295C2F3F2041313F71
S315000044C0C3D32B3FD95F263FD881233F5C8F223F42
S315000044D09B551F3FC4B11E3FCEAA1F3F85EB213F10
S315000044E068221C3FCEAA1F3F5D6D253FA54E203F8B
S315000044F0AE47213F0BB5263F52B82E3FC3F5283FA6
S315000045007CF2303FCEAA2F3F158C3A3F8FC2353F03
S315000045105D6D453F9A773C3FEC2F4B3F0C93493FEF
S31500004520F7064F3F5C8F523FB9FC573F8FC2553F4E
S3150000453048BF5D3FC4B15E3FE17A643F5396613F39
S315000045400AD7633F6744693FB81E653F87A7673F41
S315000045505C8F623F5396613F8FC2653F3411663F61
S31500004560499D603FB9FC673F7B146E3FC3D36B3FE9
S315000045705474743F2A3A723F6744793F5227803F0A
S315000045803411863F4850843F0BB5863F295C873FF0
S31500004590151D893FCEAA873F3D0A873F7B14863F7C
S315000045A09A08833FCDCC7C3F151D813FB9FC773FF0
S315000045B048BF6D3FB003673FC3D35B3F3EE8493F0B
S315000045C0E3364A3F8FC2353F90A0383FC3D32B3FD7
S315000045D0EC2F2B3FE258273FD881233FD881233F3A
S315000045E03411263F9A772C3FA4702D3FE17A343F51
S315000045F0BADA3A3FA52C433FB003473FE17A543F2E
S31500004600B003573F3411663FBADA6A3FF6287C3F5B
S31500004610C4B17E3F711B853FECC0893FF6288C3FB5
S315000046200BB58E3FE17A943F5C8F923F01DE923F5D
S31500004630865A933F5DFE933FD7A3903F0B468D3F2F
S31500004640B9FC873F3D0A873F711B7D3F158C7A3F3A
S31500004650EC2F6B3F5474643FCEAA4F3FAF25443FC7
S31500004660A54E303F9A99193F917EFB3E2041D13E9F
S31500004670166AAD3E3D0A973E0C93893EEC51783E54
S31500004680EC51783EB1BF6C3EA7E8883EAE47813E0E
S31500004690C66D743E0E4F8F3E7DD0933E0000A03E09
S315000046A0F7E4A13EDA1BBC3E35EFB83EC4B1CE3EC0
S315000046B0713DEA3E7DD0F33ECE88123F7CF2203F2C
S315000046C07B142E3FD881433F52B85E3F48E17A3F84
S315000046D07CF2903FAE47A13F6744B93F151D554058
S315000046E07B1472407B14724087164D40CD3B4E4082
S315000046F0C74B4F401748504005345140C2175240EF
S31500004700F1F45240EFC95340029A5440575B55406A
S31500004710A60A56404CA65640D734574046B6574090
S31500004720832F58407AA55840E414594006815940D1
S3150000473029ED594061545A403CBD5A4018265B4009
S31500004740C8985B40EA045C40AA605C4096B25C4054
S31500004750F4FD5C40AE475D40C58F5D4095D45D403D
S3150000476065195E40925C5E4062A15E40D5E75E40A0
S3150000477090315F404A7B5F4092CB5F40211F604093
S31500004780F775604029CB60405C206140EB73614067
S315000047901DC96140091B62403B7062406DC56240A5
S315000047A0A01A63408B6C63408CB963404703644036
S315000047B017486440448B6440CDCC6440560E654037
S315000047C0F54A6540DB8A6540C1CA65405F076640B9
S315000047D0A245664041826640E0BE6640DBF966401F
S315000047E090316740E86A6740F9A067400AD767409A
S315000047F0780B6840423E68400D716840D7A3684018
S3150000480045D868400F0B6940D93D6940A47069409E
S3150000481012A569407FD969404A0C6A405B426A40EA
S31500004820107A6A4021B06A40D5E76A402D216B4074
S31500004830295C6B4024976B4067D56B4006126C4031
S315000048408F536C4075936C40FED46C40CE196D400E
S315000048509E5E6D406EA36D40E2E96D4055306E4040
S31500004860107A6E4027C26E40E10B6F409B556F4039
S31500004870569F6F4010E96F40273170403E79704077
S31500004880F8C27040B30C7140CA547140849E7140A6
S3150000489085EB7140E33672408885724089D272405A
S315000048A0D1227340BC747340EFC97340211F74401A
S315000048B05474744029CB7440A3237540787A7540AC
S315000048C04ED1754081267640107A7640FBCB7640F5
S315000048D0E71D77408B6C77408CB97740470378406B
S315000048E0BA497840A089784029CB7840810479403C
S315000048F07D3F79403277794043AD794054E3794042
S31500004900C2177A40304C7A409D807A4052B87A403D
S3150000491007F07A405F297B40FE657B4040A47B40E0
S3150000492026E47B4052277C40226C7C40DDB57C40EF
S315000049303B017D4083517D406EA37D40A1F87D40C3
S315000049401A517E4036AB7E4053057F405A647F4005
S3150000495061C37F4062108040E63F8040986E804091
S31500004960499D804058CA8040C3F580402D21814032
S3150000497052498140767181402497814002BC814032
S31500004980C6DC8140B9FC81409318824027318240C1
S31500004990A245824004568240F16382403B708240C9
S315000049A0E17A8240B68482405C8F82405F98824082
S315000049B0D7A38240ACAD824080B78240F8C2824025
S315000049C042CF82408CDB8240A7E8824066F7824075
S315000049D025068340591783405F298340083D83405D
S315000049E0CA5483402F6E8340098A8340FCA98340C2
S315000049F036CD83405AF583400B248440A857844023
S31500004A00A3928440A1D68440742485400AD7A33B50
S31500004A100AD7233C8FC2753C0AD7A33CCDCCCC3CED
S31500004A208FC2F53C295C0F3D0AD7233DEC51383D3A
S31500004A30CDCC4C3DAE47613D8FC2753DB81E853D20
S31500004A40295C8F3D9A99993D0AD7A33D7B14AE3DCB
S31500004A50EC51B83D5C8FC23DCDCCCC3D3D0AD73D37
S31500004A60AE47E13D1F85EB3D8FC2F53D0000003EA0
S31500004A70B81E053E713D0A3E295C0F3EE17A143EA2
S31500004A809A99193E52B81E3E0AD7233EC3F5283ED0
S31500004A907B142E3E3333333EEC51383EA4703D3EFC
S31500004AA05C8F423E14AE473ECDCC4C3E85EB513E2C
S31500004AB03D0A573EF6285C3EAE47613E6666663E58
S31500004AC01F856B3ED7A3703E8FC2753E48E17A3E86
S31500004AD00000803E5C8F823EB81E853E14AE873E47
S31500004AE0713D8A3ECDCC8C3E295C8F3E85EB913E56
S31500004AF0E17A943E3D0A973E9A99993EF6289C3E65
S31500004B0052B89E3EAE47A13E0AD7A33E6666A63E73
S31500004B10C3F5A83E1F85AB3E7B14AE3ED7A3B03E81
S31500004B203333B33E8FC2B53EEC51B83E48E1BA3E90
S31500004B30A470BD3E0000C03E5C8FC23EB81EC53E9E
S31500004B4014AEC73E713DCA3ECDCCCC3E295CCF3EAD
S31500004B5085EBD13EE17AD43E3D0AD73E9A99D93EBD
S31500004B60F628DC3E52B8DE3EAE47E13E0AD7E33ECB
S31500004B706666E63EC3F5E83E1F85EB3E7B14EE3ED9
S31500004B80D7A3F03E3333F33E8FC2F53EEC51F83EE9
S31500004B9048E1FA3EA470FD3E0000003FAE47013FEB
S31500004BA05C8F023F0AD7033FB81E053F6666063F85
S31500004BB014AE073FC3F5083F713D0A3F1F850B3F03
S31500004BC0CDCC0C3F7B140E3F295C0F3FD7A3103F83
S31500004BD085EB113F3333133FE17A143F8FC2153F04
S31500004BE03D0A173FEC51183F9A99193F48E11A3F81
S31500004BF0F6281C3FA4701D3F52B81E3F0000203F00
S31500004C00AE47213F5C8F223F0AD7233FB81E253F80
S31500004C106666263F14AE273FC3F5283F713D2A3FFF
S31500004C201F852B3FCDCC2C3F7B142E3F295C2F3F7D
S31500004C30D7A3303F85EB313F3333333FE17A343FFF
S31500004C408FC2353F3D0A373FEC51383F9A99393F7D
S31500004C5048E13A3FF6283C3FA4703D3F52B83E3FFC
S31500004C600000403FAE47413F5C8F423F0AD7433F7B
S31500004C70B81E453F6666463F14AE473FC3F5483FFC
S31500004C80713D4A3F1F854B3FCDCC4C3F7B144E3F79
S31500004C90295C4F3FD7A3503F85EB513F3333533FFA
S31500004CA0E17A543F8FC2553F3D0A573FEC51583F7A
S31500004CB09A99593F48E15A3FF6285C3FA4705D3FF8
S31500004CC052B85E3F0000603FAE47613F5C8F623F77
S31500004CD00AD7633FB81E653F6666663F14AE673FF8
S31500004CE0C3F5683F713D6A3F1F856B3FCDCC6C3F76
S31500004CF07B146E3F295C6F3FD7A3703F85EB713FF6
S31500004D003333733FE17A743F8FC2753F3D0A773F75
S31500004D10EC51783F9A99793F48E17A3FF6287C3FF3
S31500004D20A4707D3F52B87E3F295C7F3F0000803FE4
S31500004D3001A03BC50000FA430000FA430000FA4315
S31500004D400000FA430000FA430000FA436F12833A68
S31500004D5000000000000000000000000017B7D13876
S31500004D60000000000000000000000000B003673CE7
S31500004D70BD3786350000000000000000000000007E
S31500004D8077CC2B320000000000000000000000007D
S31500004D9017B751390400002007010000AC0B0020B2
S31500004DA0DC4D00000C4F0000000200000110011154
S31500004DB00112011300000000000000004102000083
S31500004DC000000000C84D0000000100002400002083
S31500004DD00F00FFFF00000000FFFF00000D000000B5
S31500004DE0E44D000004000000000000000400000084
S31500004DF001000000040000000200000000000104A1
S31500004E000001000000000104010100000000011083
S31500004E100201000000000110030100000000010073
S31500004E200801000000000104060200000000010461
S31500004E300702000000000100000300000000010559
S31500004E40080400000000010509040000980199010A
S31500004E509A019B019201930194019501A100A4007E
S31500004E60A500A200A300C600CF00D80080018101E2
S31500004E708201830100000000000000000000000025
S31500004E80000000000000000000000000000000001C
S31500004E90000000000000000000000000000000000C
S31500004EA000000000000000000000000000000000FC
S31500004EB000000000000000000000000000000000EC
S31500004EC000000000000000000000000000000000DC
S31500004ED000000000000000000000000000000000CC
S31500004EE000000000000000000000000000000000BC
S31500004EF000000000000000000000000000000000AC
S31500004F00000000000000000000000000C1250000B5
S31500004F10ED220000D5250000E1250000B1230000A8
S31500004F200924000005240000F92200004D2300009A
S31500004F306D23000099230000E92300001D230000D3
S31500004F403123000001000200080010005245454EC2
S31500004F5054206D616C6C6F63207375636365656463
S31500004F606564002F6D6E742F776F726B737061635B
S31500004F70652F776F726B73706163652F4743432D9F
S31500004F8031302D706970656C696E652F6A656E6B60
S31500004F90696E732D4743432D31302D706970656CF2
S31500004FA0696E652D3333385F323032313130313806
S31500004FB05F313633343531363230332F7372632FE7
S31500004FC06E65776C69622F6E65776C69622F6C69A6
S31500004FD062632F737472696E672F737472746F6B6A
S31500004FE02E63000020202020202020202028282892
S31500004FF0282820202020202020202020202020209B
S3150000500020202020881010101010101010101010E2
S315000050101010101004040404040404040404101002
S31500005020101010101041414141414101010101019F
S31500005030010101010101010101010101010101104B
S315000050401010101010424242424242020202020274
S31500005050020202020202020202020202020202101C
S3150000506010101020000000000000000000000000EA
S31500005070000000000000000000000000000000002A
S31500005080000000000000000000000000000000001A
S31500005090000000000000000000000000000000000A
S315000050A000000000000000000000000000000000FA
S315000050B000000000000000000000000000000000EA
S315000050C000000000000000000000000000000000DA
S315000050D000000000000000000000000000000000CA
S315000050E000000000000000000000000000000000BA
S315000050F000000000000000000000000000000000AA
S315000051000000000000000000000000000000000099
S315000051100000000000000000000000000000000089
S315000051200000000000000000000000000000000079
S315000051300000000000000000000000000000000069
S3150000514000000000232D302B2000686C4C006566A3
S3150000515067454647003031323334353637383941C2
S3150000516042434445460030313233343536373839D8
S3110000517061626364656600FF00000000D9
S3150000517C0100000000703BC50000FA430000FA4332
S3150000518C0000FA430000FA430000FA430000FA4319
S3150000519C0100000040001A002C0000200000000056
S315000051AC0451000024510000E450000000000000EF
S315000051BC00000000000000000000000000000000DD
S315000051CC00000000000000000000000000000000CD
S315000051DC00000000000000000000000000000000BD
S315000051EC00000000000000000000000000000000AD
S315000051FC0000000000000000000000002502000076
S3090000520C0102000095
S3150100A100FFFFFFFFFFFFFFFFFFFFFFFFFFFFFFFF58
S3150100A110FFFFFFFFFFFFFFFFFFFFFFFFFFFFFFFF48
S3150100A120FFFFFFFFFFFFFFFFFFFFFFFFFFFFFFFF38
S30D0100A130FFFFFFFFFFFFFFFF28
S3150100A200FFFDFFFFFFFFFFFFFFFFFFFFFFFFFFFF59
S3150100A210FFFFFFFFFFFFFFFFFFFFFFFFFFFFFFFF47
S3150100A220FFFFFFFFFFFFFFFFFFFFFFFFFFFFFFFF37
S3150100A230FFFFFFFFFFFFFFFFFFFFFFFFFFFFFFFF27
S3150100A240FFFFFFFFFFFFFFFFFFFFFFFFFFFFFFFF17
S3150100A250FFFFFFFFFFFFFFFFFFFFFFFFFFFFFFFF07
S3150100A260FFFFFFFFFFFFFFFFFFFFFFFFFFFFFFFFF7
S3150100A270FFFFFFFFFFFFFFFFFFFFFFFFFFFFFFFFE7
S3150100A280F8F8FFFFFFFFFFFFFFFFFFFFFFFFFFFFE5
S3150100A290FFFFFFFFFFFFFFFFFFFFFFFFFFFFFFFFC7
S3150100A2A0FFFFFFFFFFFFFFFFFFFFFFFFFFFFFFFFB7
S3150100A2B0FFFFFFFFFFFFFFFFFFFFFFFFFFFFFFFFA7
S3110100A2C0FFFFFFFFFFFFFFFFFFFFFFFF97
S70500002DD5F8
